:03000000020006F5
:03006A000200038E
:0300030002007F79
:20006D00AE82AF838E048F051EBEFF011FEC4D70F3227F00C0071200AB750C02750D001218
:1E008D000178AD82AE83D007ED4E24FF92B4C2B6D2B60FBF200040DCC2B5D2B580D4A5
:0B005F00750801E4F509F50A750B8037
:2000AB00AC08AD09AE0AAF0B8D00EEC313C813C8C313C813C8F9EF030354C049F9EF0303B3
:2000CB00543FFA7B00EC6200ED6201EE6202EF6203E828FDE933FEEA33FF7C00E86204E9D3
:2000EB006205EA6206EB6207EFC313F8E4F9FAFBE86204E96205EA6206EB62078C088D09EB
:20010B008E0A8F0B8C82747F5DF58322AE82AF837D007C008E088F098D0A74804CF50B2228
:06003500E478FFF6D8FD9F
:200013007900E94400601B7A009001B2780175A000E493F2A308B8000205A0D9F4DAF275E0
:02003300A0FF2C
:20012B00E50C450D60467A01E50C25E0F50CE50D334012F50DE582950CE583950D40030A81
:20014B0080E6C3E50D13F50DE50C13F50CC3E582950CF5F0E583950D4005F58385F082C32E
:0D016B00E50D13F50DE50C13F50CDAE1229E
:20003B007800E84400600A790175A000E4F309D8FC7800E84400600C7900900001E4F0A3C3
:04005B00D8FCD9FAFA
:0D00060075810D1201AEE58260030200035A
:20017800C2D5E58330E70DD2D5E4C39582F582E49583F583E50D30E70BE4C3950CF50CE4B3
:16019800950DF50D12012B30D50BE4C39582F582E49583F5832294
:0401AE007582002234
:00000001FF
