:03000000020006F5
:03005F0002000399
:0300030002007A7E
:20006200AE82AF83EE4F600F7D64ED14FCFD70FA1EBEFF011F80ED227E007F008E058DF094
:2000820005F07401800225E0D5F0FBF4F5809003E8C007C006120062D006D0070EBE00014E
:0E00A2000FC3EE9408EF6480948040D080CAB3
:06003500E478FFF6D8FD9F
:200013007900E94400601B7A009000B4780175A000E493F2A308B8000205A0D9F4DAF275DF
:02003300A0FF2C
:20003B007800E84400600A790175A000E4F309D8FC7800E84400600C7900900001E4F0A3C3
:04005B00D8FCD9FAFA
:0D0006007581071200B0E58260030200035F
:0400B0007582002233
:00000001FF
