:03000000020006F5
:03005F0002000399
:0300030002006296
:2000620012006A12008080FB759850758920758780758BF3758DF3D28ED2ACD2AF22900005
:20008200F775F08012009AB28090C3500200C585829910990280FB22AD82AE83AFF08D8244
:2000A2008E838FF01200D7FC60188C820DBD00010EC007C006C005120091D005D006D007F3
:1500C20080DC22AE82AF838E048F051EBEFF011FEC4D70F3226A
:0D00F70068656C6C6F20776F726C640A0096
:06003500E478FFF6D8FD9F
:200013007900E94400601B7A00900104780175A000E493F2A308B8000205A0D9F4DAF2758E
:02003300A0FF2C
:20003B007800E84400600A790175A000E4F309D8FC7800E84400600C7900900001E4F0A3C3
:04005B00D8FCD9FAFA
:0D0006007581071200F3E58260030200031C
:1C00D70020F71430F6148883A88220F507E6A88375830022E280F7E49322E02238
:0400F30075820022F0
:00000001FF
