:03000000020006F5
:03005F0002000399
:0300030002006296
:2000620012006A12006D80FBD28022A290928022AE82AF838E048F051EBEFF011FEC4D7002
:02008200F32267
:06003500E478FFF6D8FD9F
:200013007900E94400601B7A00900088780175A000E493F2A308B8000205A0D9F4DAF2750B
:02003300A0FF2C
:20003B007800E84400600A790175A000E4F309D8FC7800E84400600C7900900001E4F0A3C3
:04005B00D8FCD9FAFA
:0D000600758107120084E58260030200038B
:04008400758200225F
:00000001FF
