:060000000200090200737A
:0300620002000693
:0300060002006590
:2000650012006A80FED288D2A8D2AFD2A122C2A13222AE82AF838E048F051EBEFF011FEC71
:040085004D70F322A5
:06003800E478FFF6D8FD9C
:200016007900E94400601B7A0090008D780175A000E493F2A308B8000205A0D9F4DAF27503
:02003600A0FF29
:20003E007800E84400600A790175A000E4F309D8FC7800E84400600C7900900001E4F0A3C0
:04005E00D8FCD9FAF7
:0D000900758108120089E58260030200067F
:04008900758200225A
:00000001FF
