:0600000002000902007776
:0300620002000693
:0300060002006590
:2000650012006D12007680FBD288D2A8D2AFC2922222C020C0E0C0F0C082C083C007C006CA
:20008500C005C004C003C002C001C000C0D075D00090000A1200BE20B202B292D0D0D00005
:2000A500D001D002D003D004D005D006D007D083D082D0F0D0E0D02032AE82AF838E048FB5
:0B00C500051EBEFF011FEC4D70F32272
:06003800E478FFF6D8FD9C
:200016007900E94400601B7A009000D4780175A000E493F2A308B8000205A0D9F4DAF275BC
:02003600A0FF29
:20003E007800E84400600A790175A000E4F309D8FC7800E84400600C7900900001E4F0A3C0
:04005E00D8FCD9FAF7
:0D0009007581201200D0E582600302000620
:0400D0007582002213
:00000001FF
