:0400000002001132B7
:03000B000200856B
:03006A0002000E83
:03000E0002006D80
:20006D001200751200BF80FB758901758CFC758A18D28CD2A9D2AF22C0E0C0D0758CFC756F
:20008D008A180508E4B508020509C3E50894E8E50994035004B2808014C3E50894D0E50926
:2000AD0094075004C2808005E4F508F509D0D0D0E03222AE82AF838E048F051EBEFF011F77
:0500CD00EC4D70F32270
:06004000E478FFF6D8FD94
:20001E007900E94400601B7A009000D6780175A000E493F2A308B8000205A0D9F4DAF275B2
:02003E00A0FF21
:200046007800E84400600A790175A000E4F309D8FC7800E84400600C7900900001E4F0A3B8
:04006600D8FCD9FAEF
:0D0011007581091200D2E582600302000E25
:0400D2007582002211
:00000001FF
