:03000000020006F5
:03005F0002000399
:0300030002006296
:2000620012006A12008080FB759850758920758780758BF3758DF3D28ED2ACD2AF22120083
:20008200D4120097B29090FFFF0200C285829910990280FB22AD82AE83AFF08D828E838FB7
:2000A200F0120B67FC60188C820DBD00010EC007C006C00512008ED005D006D00780DC227D
:1200C200AE82AF838E048F051EBEFF011FEC4D70F322EB
:2000D4007F00EF2408F9EF900BA293F582C007C001120159E582D001D007F70FBF07004034
:2000F400E1AE0E7F00AC0D7D00850C2D8F2E850B2F8F30850A318F328509338F34AA087B6F
:2001140000C006C007C004C005C02DC02EC02FC030C031C032C033C034C002C00374A9C0CF
:20013400E0740BC0E07480C0E0740FC0E07400C0E07440C0E012025FE58124ECF58190009E
:200154000F75F04022AF827E00C2B500C2B600D2B5007D00EF5401FC24FF92B4EFC313FFA6
:20017400D2B600C2B6000DBD080040E8007F00A2B4E433FD8FF005F0ED800225E0D5F0FBE0
:1E019400FD4206D2B600C2B6000FBF080040E0C2B500D2B600C2B400D2B4008E8222E5
:1E0BA20081838587898B8D25782025782025782025782025782025782025780D0A0062
:06003500E478FFF6D8FD9F
:200013007900E94400601B7A00900BCB780175A000E493F2A308B8000205A0D9F4DAF275BD
:02003300A0FF2C
:20003B007800E84400600A790175A000E4F309D8FC7800E84400600C7900900001E4F0A3C3
:04005B00D8FCD9FAFA
:2001B200C03C85813CC082058105810581E53C24FBF8A93C0909E6F70809E6F70809E6F733
:2001D200A83C080886820886830886F0120B67FAA3120B67FBA3120B67FF74012AFCE43B02
:2001F200FD8F06A83C080886820886830886F0EC120B87A3ED120B87A3EE120B878A828B40
:20021200838FF0A83C08E6120B87853C81D03C2285823985833A85F03B754A39754B007585
:200232004C4085354D85364E85374F8538509001B212034AAE82AF83AB39AC3AAD3B8B8235
:200252008C838DF0E4120B878E828F8322C03CE581F53C24F8FF8F50E53C24FBFF8F4A751A
:200272004B00754C40E53C24F8F8864D08864E08864F9001B212034AAE82AF83E53C24FB1B
:1A029200F886030886040886058B828C838DF0E4120B878E828F83D03C223B
:2002AC00AF82C040C041C0421202B98007C03EC03F8F82221581158115810548E4B5480288
:2002CC00054922AF8274302FFF24C6500B74072FFFE53D60034307208F820202ACE582FF9B
:2002EC00C4540FF582C0071202CFD007740F5FF5820202CF85826AAB43AC44AD45AE46AAC8
:20030C0047756C208A07EF2FF56BEE235401456BFAEB2BFBEC33FCED33FDEE33FEC3EA95C0
:20032C006A4008EAC3956AFA430301E56C14FF8F6C70D18B438C448D458E468A4722858234
:20034C003E85833F854A40854B41854C42E4F548F549AD4DAE4EAF4F8D828E838FF0120BCA
:20036C0067FC74012DF54DE43EF54E8F4FECFF7003020B2BBF25028003020B237E007D00BD
:20038C008E518E527A007B008E537C008E54E4F55CF55D7555FF7556FF854D5E854E5F855D
:2003AC004F60855E82855F838560F0120B67F561A385825E85835F855E4D855F4E85604F02
:2003CC007425B561088561821202AC808574D02561400302048CE56124C6500302048C7405
:2003EC00FFB55555B55652855C6A855D6B90000AC006C005C004C003C002120B4A85826260
:20040C00858363D002D003D004D005D006856164756500E5642562F564E5653563F565E5D3
:20042C006424D0F55CE56534FFF55DE55C455D60030203AE7D010203AE85556A85566B90F4
:20044C00000AC006C005C004C003C002120B4A858264858365D002D003D004D005D00685CA
:20046C006162756300E5622564F564E5633565F565E56424D0F555E56534FFF5560203AE6E
:20048C00742EB5611574FFB55505B5560280030203AEE4F555F5560203AE749F2561500E9B
:2004AC00E561248540085361DF753D018003753D007420B56103020558742BB561030205B3
:2004CC0052742DB5610280797442B5610302055E7443B561030205697444B561030207B608
:2004EC007446B561030207CC7448B561030203AE7449B561030207B6744AB561030203AEA1
:20050C00744CB561028050744FB561030207BD7450B561030207017453B561028076745401
:20052C00B561030203AE7455B561030207C27458B561030207C7745AB561030203AE0207DE
:20054C00D07E010203AE7551010203AE7552010203AE7B010203AE7553010203AEEB600A98
:20056C00E55014F989508764800DE55024FEF562856250A9628764856482C006C005C00447
:20058C00C003C0021202ACD002D003D004D005D0060207F2E55024FDF564856450A964876F
:2005AC005E09875F0987601919855E43855F44856045855E82855F838560F0C006C005C05C
:2005CC0004C003C002120B32858264858365D002D003D004D005D00674FFB55509B55606A4
:2005EC00856455856556EE704FC3E564955CE565955D5044E55CC39564F562E55D9565F572
:20060C006385625E85635F156274FFB562021563E55E455F601C758220C006C005C004C0DB
:20062C0003C0021202ACD002D003D004D005D00680CF85625C85635D8555628556638543EC
:20064C00828544838545F0120B67F55E855E59604FC3E4956274808563F063F08095F05032
:20066C003F156274FFB562021563855982C006C005C004C003C0021202ACD002D003D00447
:20068C00D005D00685435E85445F854560055EE4B55E02055F855E43855F44856045809ED5
:2006AC00EE70030207F2C3E564955CE565955D40030207F2E55CC39564F564E55D9565F5D4
:2006CC0065856462856563156474FFB564021565E562456370030207EC758220C006C00597
:2006EC00C004C003C0021202ACD002D003D004D005D00680CCE55024FDF562856250A96286
:20070C00875E09875F0987601919855E43855F4485604585455A7480255A500575624380D9
:20072C001974A0255A5005756250800E74C0255A50057562498003756258856282C006C02E
:20074C0005C004C003C0021202AC75823A1202AC7582301202AC7582781202ACD002D003D3
:20076C00D004D005D0067449B5620280217450B56202801A854482C006C005C004C003C0E3
:20078C00021202E9D002D003D004D005D006854382C006C005C004C003C0021202E9D0023D
:2007AC00D003D004D005D006803C7A0175540A8035755408803075540A802B75541080269E
:2007CC007C018022856182C006C005C004C003C0021202ACD002D003D004D005D006800648
:2007EC0085645C85655DEC6068E55024FCFC8C508C018766098767098768098769191919D3
:20080C008566438567448568458569467543C075440B75458085436685446785456874018D
:20082C002566F55EE43567F55F856860855E43855F448560458566828567838568F0120B5F
:20084C0067FC8C66700302035E8566821202AC80C4E554700302035EEB603FE55014F9898C
:20086C005087048C66756700756800756900856643856744856845856946EA600302090FDD
:20088C008543667567007568007569008566438567448568458569468069E5536025E550E8
:2008AC0024FCFC8C508C018766098767098768098769191919856643856744856845856909
:2008CC00468040E55024FEFC8C508C018703098704198B66ECF5673395E0F568F56985668C
:2008EC0043856744856845856946EA7016854366854467F568F569856643856744856845FA
:20090C00856946EA602AE54630E723C3E49543F566E49544F567E49545F568E49546F56993
:20092C0085664385674485684585694680027A007C017972E4F566F567754700855482C011
:20094C0006C005C004C002C001120300D001D002D004D005D006EC700DE547C4F564E7FBAE
:20096C004564F7198002A7470566E4B566020567ECB40100E433FCE5434544454545467080
:20098C00B8895B856657856758E55C455D7005755C01F55DED7043EE7040855C66855D67DF
:2009AC00AB570B8B64756500C3E5649566E56595675021758220C006C005C004C00212025B
:2009CC00ACD002D004D005D006156674FFB56602156780CC85665C85675DEA601D75822D20
:2009EC00C006C005C0041202ACD004D005D006155C74FFB55C02155D8046E55745586040B5
:200A0C00E551601D75822BC006C005C0041202ACD004D005D006155C74FFB55C02155D807E
:200A2C001FE552601B758220C006C005C0041202ACD004D005D006155C74FFB55C02155DCB
:200A4C00EE703C855C66855D67AA66AB67156674FFB566021567C3E5579AE5589B5041EDC8
:200A6C0060067A307B0080047A207B008A82C006C005C0041202ACD004D005D00680CAC39F
:200A8C00E557955CE558955D500FE55CC39557F564E55D9558F565800DE4F564F565800613
:200AAC00856664856765A95B855766855867AA66AD67156674FFB566021567EA4D602EECA4
:200ACC00B40100E433FC700A09E7C4540FFD8D4780078705740F5DF547854782C006C004D9
:200AEC00C0011202CFD001D004D00680C1EE700302035EAD64AE658D038E041DBDFF011E88
:200B0C00EB4C700302035E758220C006C0051202ACD005D00680E08F821202AC02035E8596
:060B2C0048828549832286
:0B0BC0003C4E4F20464C4F41543E007D
:180B3200AA82AB83120B676003A380F8C3E5829AF582E5839BF5832277
:1D0B4A00E582856AF0A4C582C0F0856BF0A4D0F025F0C583856AF0A42583F5832247
:0D000600758172120B83E582600302000316
:1C0B670020F71430F6148883A88220F507E6A88375830022E280F7E49322E0229D
:040B83007582002255
:1B0B870020F71130F6138883A88220F509F6A8837583002280FEF280F5F0226D
:00000001FF
