:0400000002001132B7
:03000B0002009060
:08006A00E4F508F50902000E9F
:03000E000200727B
:2000720012007A1200B680FB758901758CFC758A18D28CD2A9D2AF7508E875090322C0E08A
:20009200C0D0758CFC758A18150874FFB508021509E50845097008B2807508E8750903D0A2
:1700B200D0D0E03222AE82AF838E048F051EBEFF011FEC4D70F32222
:06004000E478FFF6D8FD94
:20001E007900E94400601B7A009000CD780175A000E493F2A308B8000205A0D9F4DAF275BB
:02003E00A0FF21
:200046007800E84400600A790175A000E4F309D8FC7800E84400600C7900900001E4F0A3B8
:04006600D8FCD9FAEF
:0D0011007581091200C9E582600302000E2E
:0400C900758200221A
:00000001FF
